:100000000C9434000C9451000C9451000C94510049
:100010000C9451000C9451000C9451000C9451001C
:100020000C9451000C9451000C9451000C9451000C
:100030000C9451000C9451000C9451000C945100FC
:100040000C9451000C9451000C9412010C9451002A
:100050000C9451000C9451000C9451000C945100DC
:100060000C9451000C94510011241FBECFEFD8E026
:10007000DEBFCDBF11E0A0E0B1E0ECEAF6E002C0E7
:1000800005900D92AE30B107D9F721E0AEE0B1E0B6
:1000900001C01D92AA32B207E1F70E9414020C942B
:1000A00054030C940000EDE1F1E090838183CF01D3
:1000B00008951092200110921F0182E090E00FC07D
:1000C000FC01EE5EFE4F408120911F013091200126
:1000D000240F311D3093200120931F01019686309B
:1000E000910570F380911F0190912001809590956A
:1000F0000E94530080911D01809329010895CF93A0
:10010000DF93C2E1D1E09FEF988399838A8383E0F4
:100110008B836C834D830E945900809129018E83CB
:10012000DF91CF910895CF93DF930E947F00C0E0CD
:10013000D0E007C0FE01EE5EFE4F80810E94FE010E
:100140002196C730D105B0F3DF91CF910895CF93B9
:10015000C82F20E030E080E007C0FB01E20FF31F72
:100160009081890F2F5F3F4F22303105B0F390E02F
:10017000809590950E94530080911D018C1302C0C0
:1001800081E001C080E0CF910895CF93DF930E947A
:10019000F501C82F0E94F501CF3F99F48F3F99F4E4
:1001A0000E94F501C9E1D1E088830E94F5018983AD
:1001B0000E94F5018A830E94F5018B830E94F5015C
:1001C00003C080E001C080E069E171E00E94A70007
:1001D0008823E9F09091190180910001981310C0D3
:1001E000A9E1B1E011968C911197EEE0F1E090E079
:1001F0009183808313968C9190E0938382830DC0CA
:10020000EEE0F1E0118210821382128206C0EEE06D
:10021000F1E011821082138212828EE091E0DF9170
:10022000CF9108951F920F920FB60F9211242F9322
:100230003F934F935F936F937F938F939F93AF936E
:10024000BF93EF93FF930E94C500AEE0B1E08D91A4
:100250009C911197E5E2F1E09183808312968D9154
:100260009C91139793838283CF010E946901FF9130
:10027000EF91BF91AF919F918F917F916F915F911E
:100280004F913F912F910F900FBE0F901F90189597
:10029000882319F081E088B9089518B80895882353
:1002A00061F080E090E00E944C0341E0480F6091D3
:1002B000010181E00E949300089580E090E00E9497
:1002C0004C034FEF480F6091010181E00E949300C1
:1002D0000895FC01408151812091020130E04217D4
:1002E0005307C9F482819381019791F580E00E94C0
:1002F0004F018AE590E00E94A901FFEB27E289E027
:10030000F15020408040E1F700C0000080E090E024
:100310000E94A90108952091030130E0421753077C
:10032000B9F4FC0182819381019791F481E00E94EC
:100330004F0181E00E944801FFEB27E289E0F15084
:1003400020408040E1F700C0000080E00E944801AA
:1003500008959923C4F0BC016E5F7F4F072E000CF7
:10036000880B990B0E9453022AE939E941EB50E4CA
:100370000E94B7020E941B02CB018355944F9093B9
:100380008900809388009923F4F49C01992324F434
:1003900022273327281B390BB901330F880B990B00
:1003A0000E9453022AE939E941EB50E40E94B70266
:1003B0000E941B0227EB3BE0C901861B970B909321
:1003C0008900809388000895F8941092C00088E90D
:1003D0008093C10086E08093C20087E690E090930E
:1003E000C5008093C400789408958091C00088234C
:1003F0001CF48091C600089580E00895882331F0B0
:100400009091C00095FFFCCF8093C6000895CF93D4
:10041000DF93EC0103C00E94FE01219688818111C7
:10042000FACFDF91CF9108950E94E40184E091E03A
:100430000E940702FBCF0E9422026894B1110C9423
:10044000B10208950E94960288F09F5798F0B92F44
:100450009927B751B0F0E1F0660F771F881F991FF9
:100460001AF0BA95C9F714C0B13091F00E94B002E9
:10047000B1E008950C94B002672F782F8827B85FF9
:1004800039F0B93FCCF3869577956795B395D9F751
:100490003EF490958095709561957F4F8F4F9F4F5B
:1004A0000895E89409C097FB3EF490958095709567
:1004B00061957F4F8F4F9F4F9923A9F0F92F96E9B0
:1004C000BB279395F695879577956795B795F11125
:1004D000F8CFFAF4BB0F11F460FF1BC06F5F7F4FC2
:1004E0008F4F9F4F16C0882311F096E911C07723D4
:1004F00021F09EE8872F762F05C0662371F096E8DD
:10050000862F70E060E02AF09A95660F771F881FAB
:10051000DAF7880F9695879597F9089557FD9058C3
:10052000440F551F59F05F3F71F04795880F97FBB7
:10053000991F61F09F3F79F0879508951216130671
:100540001406551FF2CF4695F1DF08C016161706A0
:100550001806991FF1CF86957105610508940895D5
:10056000E894BB2766277727CB0197F908950E9467
:10057000CA020C943B030E942D0338F00E943403FE
:1005800020F0952311F00C9424030C942A031124D9
:100590000C94B1020E948E0270F3959FC1F3950FE7
:1005A00050E0551F629FF001729FBB27F00DB11DF7
:1005B000639FAA27F00DB11DAA1F649F6627B00D87
:1005C000A11D661F829F2227B00DA11D621F739F70
:1005D000B00DA11D621F839FA00D611D221F749F7E
:1005E0003327A00D611D231F849F600D211D822FC5
:1005F000762F6A2F11249F5750409AF0F1F08823EC
:100600004AF0EE0FFF1FBB1F661F771F881F915018
:100610005040A9F79E3F510580F00C9424030C94A0
:10062000B1025F3FE4F3983ED4F3869577956795E2
:10063000B795F795E7959F5FC1F7FE2B880F911D42
:100640009695879597F9089597F99F6780E870E0E8
:1006500060E008959FEF80EC089500240A94161638
:10066000170618060906089500240A9412161306A0
:10067000140605060895092E0394000C11F488232E
:1006800052F0BB0F40F4BF2B11F460FF04C06F5F4A
:100690007F4F8F4F9F4F0895F999FECF92BD81BD37
:0C06A000F89A992780B50895F894FFCFD0
:0E06AC000202050465737461207669766F00A2
:00000001FF
