:100000000C9434000C9451000C9451000C94510049
:100010000C9451000C9451000C9451000C9451001C
:100020000C9451000C9451000C9451000C9451000C
:100030000C9451000C9451000C9451000C945100FC
:100040000C9451000C9451000C948C000C945100B1
:100050000C9451000C9451000C9451000C945100DC
:100060000C9451000C94510011241FBECFEFD8E026
:10007000DEBFCDBF11E0A0E0B1E0E6E7F7E002C0EF
:1000800005900D92A036B107D9F721E0A0E6B1E0C6
:1000900001C01D92A238B207E1F70E942C020C9415
:1000A000B9030C9400000F931F93CF93DF930E942A
:1000B0000402082F0E940402C82F82E091E00E94EF
:1000C000160210E040E16FE671E0C8010E946E0385
:1000D0008FE691E00E942302D0E040E16FE671E0FC
:1000E000CE010E946E038FE691E00E9423022FEB67
:1000F00087E299E0215080409040E1F700C0000085
:10010000E0E6F1E011830083D383C283CF01DF9166
:10011000CF911F910F9108951F920F920FB60F92DA
:1001200011242F933F934F935F936F937F938F93FC
:100130009F93AF93BF93EF93FF930E94530080E68A
:1001400091E00E944101FF91EF91BF91AF919F918A
:100150008F917F916F915F914F913F912F910F9070
:100160000FBE0F901F901895E9E7F1E0908381830F
:10017000CF01089510927C0110927B0182E090E003
:100180000FC0FC01EC59FE4F408120917B01309162
:100190007C01240F311D30937C0120937B0101965B
:1001A0008630910570F380917B0190917C01809560
:1001B00090950E94B4008091790180938101089507
:1001C000CF93DF93C4E6D1E09FEF988399838A832E
:1001D00083E08B836C834D830E94BA008091810100
:1001E0008E83DF91CF910895CF93DF930E94E0003B
:1001F000C0E0D0E007C0FE01EC59FE4F80810E94B4
:100200000D022196C730D105B0F3DF91CF9108954B
:100210008FEF8AB987B90895882319F081E088B9EA
:10022000089518B808956AE080E090E00E94AB035A
:100230000895CF93882391F080E090E00E94A3037B
:10024000C1E0C80F6C2F80E090E00E94AB034C2F00
:100250006091000182E00E94F40011C080E090E013
:100260000E94A303CFEFC80F6C2F80E090E00E94A4
:10027000AB034C2F6091000182E00E94F400CF910B
:100280000895CF93DF93EC0188E291E00E9423026E
:1002900040E16FE671E0888199810E946E038FE6EC
:1002A00091E00E94230240E16FE671E08A819B8128
:1002B0000E946E038FE691E00E942302288139811B
:1002C00025303105E1F4F89482E491E00E942302A4
:1002D00080E00E9419018AE590E00E94B8012AE2BC
:1002E00030E58EEF90E02150304080409040D9F7CB
:1002F000000080E090E00E94B80178941CC08091DA
:10030000010190E028173907B1F48A819B81019798
:1003100091F481E00E94190181E00E940C012FEB11
:1003200037E289E0215030408040E1F700C0000012
:1003300080E00E940C01DF91CF91089584B182602A
:1003400084B984B1846084B984B1886084B9E0E8F8
:10035000F0E08081826A8083E1E8F0E080818A6158
:1003600080838FE39CE990938700809386000895B3
:100370009923C4F0BC016E5F7F4F072E000C880BE1
:10038000990B0E9475022AE939E941EB50E40E9479
:10039000D9020E943D02CB018355944F909389006E
:1003A000809388009923F4F49C01992324F4222754
:1003B0003327281B390BB901330F880B990B0E9487
:1003C00075022AE939E941EB50E40E94D9020E9402
:1003D0003D0227EB3BE0C901861B970B90938900F8
:1003E000809388000895F8941092C00088E9809363
:1003F000C10086E08093C20087E690E09093C5003C
:100400008093C400789408958091C00088231CF4E0
:100410008091C600089580E00895882331F090917E
:10042000C00095FFFCCF8093C6000895CF93DF9363
:10043000EC0103C00E940D02219688818111FACF40
:10044000DF91CF9108950E9416028DE00E940D0267
:100450008AE00E940D0208950E9408010E949E01F8
:1004600080E090E00E94B8010E94F3010E94130115
:1004700085E591E00E942302FFCF0E944402689428
:10048000B1110C94D30208950E94B80288F09F57CE
:1004900098F0B92F9927B751B0F0E1F0660F771FA8
:1004A000881F991F1AF0BA95C9F714C0B13091F09E
:1004B0000E94D202B1E008950C94D202672F782FE7
:1004C0008827B85F39F0B93FCCF386957795679563
:1004D000B395D9F73EF490958095709561957F4FCF
:1004E0008F4F9F4F0895E89409C097FB3EF4909575
:1004F0008095709561957F4F8F4F9F4F9923A9F0FD
:10050000F92F96E9BB279395F6958795779567958B
:10051000B795F111F8CFFAF4BB0F11F460FF1BC0CF
:100520006F5F7F4F8F4F9F4F16C0882311F096E962
:1005300011C0772321F09EE8872F762F05C0662310
:1005400071F096E8862F70E060E02AF09A95660FC9
:10055000771F881FDAF7880F9695879597F9089582
:1005600057FD9058440F551F59F05F3F71F0479564
:10057000880F97FB991F61F09F3F79F08795089549
:10058000121613061406551FF2CF4695F1DF08C068
:10059000161617061806991FF1CF86957105610585
:1005A00008940895E894BB2766277727CB0197F92D
:1005B00008950E94EC020C945D030E944F0338F0F2
:1005C0000E94560320F0952311F00C9446030C94DE
:1005D0004C0311240C94D3020E94B00270F3959F37
:1005E000C1F3950F50E0551F629FF001729FBB272A
:1005F000F00DB11D639FAA27F00DB11DAA1F649FC6
:100600006627B00DA11D661F829F2227B00DA11D78
:10061000621F739FB00DA11D621F839FA00D611DFE
:10062000221F749F3327A00D611D231F849F600D1F
:10063000211D822F762F6A2F11249F5750409AF048
:10064000F1F088234AF0EE0FFF1FBB1F661F771FD4
:10065000881F91505040A9F79E3F510580F00C949F
:1006600046030C94D3025F3FE4F3983ED4F386959F
:1006700077956795B795F795E7959F5FC1F7FE2B3F
:10068000880F911D9695879597F9089597F99F671B
:1006900080E870E060E008959FEF80EC089500240A
:1006A0000A941616170618060906089500240A94D7
:1006B00012161306140605060895092E0394000C5D
:1006C00011F4882352F0BB0F40F4BF2B11F460FFEC
:1006D00004C06F5F7F4F8F4F9F4F0895BB274A30F5
:1006E00031F4992322F4BDE2909581959F4F0C94AB
:1006F0007A03BB27FB015527AA27880F991FAA1F3A
:10070000A41710F0A41B83955051B9F7A05DAA332C
:1007100008F0A95DA193009779F7B111B1931192F7
:10072000CB010C949303DC01FC01672F71917723BB
:10073000E1F7329704C07C916D9370836291AE179C
:10074000BF07C8F30895F999FECF92BD81BDF89A0D
:10075000992780B50895262FF999FECF1FBA92BD2B
:1007600081BD20BD0FB6F894FA9AF99A0FBE019692
:060770000895F894FFCF8C
:1007760002046865206C6569646F20636162656365
:1007860065726100656E63656E6469646F006170B1
:10079600616761646F002C00456A65637574616EFC
:1007A600646F20616374696F6E2068616E646C6546
:1007B600720061627269656E646F20636F6D707539
:1007C6006572746100456E63656E6469646F0000EE
:00000001FF
