:100000000C9434000C9451000C9451000C94510049
:100010000C9451000C9451000C9451000C9451001C
:100020000C9451000C9451000C9451000C9451000C
:100030000C9451000C9451000C9451000C945100FC
:100040000C9451000C9451000C9451000C945100EC
:100050000C9451000C9451000C9451000C945100DC
:100060000C9451000C94510011241FBECFEFD8E026
:10007000DEBFCDBF11E0A0E0B1E0E4E8F6E002C0F1
:1000800005900D92A839B107D9F721E0A8E9B1E0B0
:1000900001C01D92A23BB207E1F70E94C5010C947A
:1000A00040030C9400009093AD018DEA91E0089517
:1000B0001092B0011092AF0182E090E00FC0FC01FD
:1000C000E856FE4F40812091AF013091B001240FDE
:1000D000311D3093B0012093AF0101968630910518
:1000E00070F38091AF019091B001809590950E943E
:1000F00053008091AD018093B1010895CF93DF93B8
:10010000C8E9D1E09FEF988399838A8383E08B834A
:100110006C834D830E9458008091B1018E83DF91E2
:10012000CF910895CF93DF930E947E00C0E0D0E08E
:1001300007C0FE01E856FE4F80810E94A60121966D
:10014000C730D105B0F3DF91CF9108958FEF8AB911
:1001500087B90895882319F081E088B9089518B8FF
:10016000089580E090E00E942A038F3F51F46AE0F6
:1001700081E090E00E94320360E080E090E00E9425
:1001800032030895CF93882391F081E090E00E949C
:100190002A03C1E0C80F6C2F81E090E00E94320377
:1001A0004C2F6091010182E00E9492001EC081E00C
:1001B00090E00E942A03813059F482E091E00E948D
:1001C000BC0140E06091000182E00E9492000DC0FD
:1001D000CFEFC80F6C2F81E090E00E9432034C2FCC
:1001E0006091010182E00E949200CF910895CF9327
:1001F000DF93EC018EE191E00E94BC018A819B813A
:1002000085309105C9F488E391E00E94BC0180E04B
:100210000E94C2008AE590E00E9451012FE786E922
:1002200098E9215080409040E1F700C0000080E054
:1002300090E00E94510118C00497B1F485E691E066
:100240000E94BC0181E00E94C20081E00E94AA00DD
:100250002FE786E998E9215080409040E1F700C0FF
:10026000000080E00E94AA00DF91CF91089584B140
:10027000826084B984B1846084B984B1886084B9AF
:10028000E0E8F0E08081826A8083E1E8F0E080814C
:100290008A6180838FE39CE9909387008093860036
:1002A00008959923C4F0BC016E5F7F4F072E000CA8
:1002B000880B990B0E9431022AE939E941EB50E49D
:1002C0000E9495020E94F901CB018355944F9093AF
:1002D0008900809388009923F4F49C01992324F4E5
:1002E00022273327281B390BB901330F880B990BB1
:1002F0000E9431022AE939E941EB50E40E9495025B
:100300000E94F90127EB3BE0C901861B970B9093F4
:100310008900809388000895F8941092C00088E1C5
:100320008093C10086E08093C20087E690E09093BE
:10033000C5008093C400789408958091C0008823FC
:100340001CF48091C600089580E00895882331F060
:100350009091C00095FFFCCF8093C6000895CF9385
:10036000DF93EC0103C00E94A601219688818111D0
:10037000FACFDF91CF9108950E94AF018DE00E94E6
:10038000A6018AE00E94A6010895CF93DF9300D0D2
:1003900000D0CDB7DEB70E94A6000E94370180E0F2
:1003A00090E00E9451010E948C010E94B1008EE8F1
:1003B00091E00E94BC010E949D01182F0E949D01A6
:1003C0002FEF35EA9EE0215030409040E1F700C029
:1003D0000000112381F3882371F3212F30E03A8349
:1003E000298390E09C838B83CE0101960E94F700C5
:1003F000E2CF0E9400026894B1110C948F0208951C
:100400000E94740288F09F5798F0B92F9927B7512E
:10041000B0F0E1F0660F771F881F991F1AF0BA95A8
:10042000C9F714C0B13091F00E948E02B1E0089576
:100430000C948E02672F782F8827B85F39F0B93F68
:10044000CCF3869577956795B395D9F73EF490955B
:100450008095709561957F4F8F4F9F4F0895E894D9
:1004600009C097FB3EF490958095709561957F4FFC
:100470008F4F9F4F9923A9F0F92F96E9BB279395AA
:10048000F695879577956795B795F111F8CFFAF4BA
:10049000BB0F11F460FF1BC06F5F7F4F8F4F9F4FEB
:1004A00016C0882311F096E911C0772321F09EE849
:1004B000872F762F05C0662371F096E8862F70E0AF
:1004C00060E02AF09A95660F771F881FDAF7880F89
:1004D0009695879597F9089557FD9058440F551FA5
:1004E00059F05F3F71F04795880F97FB991F61F0B6
:1004F0009F3F79F087950895121613061406551F2D
:10050000F2CF4695F1DF08C0161617061806991F98
:10051000F1CF86957105610508940895E894BB278D
:1005200066277727CB0197F908950E94A8020C94BB
:1005300019030E940B0338F00E94120320F0952348
:1005400011F00C9402030C94080311240C948F02F4
:100550000E946C0270F3959FC1F3950F50E0551FF8
:10056000629FF001729FBB27F00DB11D639FAA2708
:10057000F00DB11DAA1F649F6627B00DA11D661F57
:10058000829F2227B00DA11D621F739FB00DA11D78
:10059000621F839FA00D611D221F749F3327A00D32
:1005A000611D231F849F600D211D822F762F6A2FCE
:1005B00011249F5750409AF0F1F088234AF0EE0F33
:1005C000FF1FBB1F661F771F881F91505040A9F760
:1005D0009E3F510580F00C9402030C948F025F3F04
:1005E000E4F3983ED4F3869577956795B795F7959C
:1005F000E7959F5FC1F7FE2B880F911D9695879514
:1006000097F9089597F99F6780E870E060E0089592
:100610009FEF80EC089500240A941616170618061A
:100620000906089500240A941216130614060506F6
:100630000895092E0394000C11F4882352F0BB0F87
:1006400040F4BF2B11F460FF04C06F5F7F4F8F4FEA
:100650009F4F0895F999FECF92BD81BDF89A9927D1
:1006600080B50895262FF999FECF1FBA92BD81BD9E
:1006700020BD0FB6F894FA9AF99A0FBE0196089524
:04068000F894FFCF1C
:1006840007025365206163616261726F6E206C6161
:1006940073206D6173636172696C6C617300456A88
:1006A40065637574616E646F20616374696F6E2035
:1006B40068616E646C65720061627269656E646F14
:1006C40020636F6D70756572746120706172612052
:1006D40073616C696461206465206D617363617228
:1006E400696C6C610041756D656E74616E646F2038
:1006F4006D6173636172696C6C61202D2061636349
:10070400696F6E616E646F2062616E646100456E34
:0807140063656E6469646F0007
:00000001FF
