:100000000C9434000C9451000C9451000C94510049
:100010000C9451000C9451000C9451000C9451001C
:100020000C9451000C9451000C9451000C9451000C
:100030000C9451000C9451000C9451000C945100FC
:100040000C9451000C9451000C9451000C945100EC
:100050000C9451000C9451000C9451000C945100DC
:100060000C9451000C94510011241FBECFEFD8E026
:10007000DEBFCDBF11E0A0E0B1E0E2E2F7E002C0F8
:1000800005900D92AC37B107D9F721E0ACE7B1E0AC
:1000900001C01D92A639B207E1F70E94C1010C947C
:1000A0008F030C9400009093910181E991E00895F1
:1000B000109294011092930182E090E00FC0FC0135
:1000C000E458FE4F40812091930130919401240F18
:1000D000311D309394012093930101968630910550
:1000E00070F38091930190919401809590950E9476
:1000F000530080919101809395010895CF93DF93F0
:10010000CCE7D1E09FEF988399838A8383E08B8348
:100110006C834D830E945800809195018E83DF91FE
:10012000CF910895CF93DF930E947E00C0E0D0E08E
:1001300007C0FE01E458FE4F80810E94A201219673
:10014000C730D105B0F3DF91CF9108958FEF8AB911
:1001500087B90895882319F081E088B9089518B8FF
:10016000089580E090E00E9479038F3F51F46AE0A7
:1001700081E090E00E94810360E080E090E00E94D6
:1001800081030895CF93882391F081E090E00E944D
:100190007903C1E0C80F6C2F81E090E00E948103D9
:1001A0004C2F6091010182E00E9492001AC081E010
:1001B00090E00E947903813039F441E060910001C0
:1001C00082E00E9492000DC0CFEFC80F6C2F81E03B
:1001D00090E00E9481034C2F6091010182E00E9417
:1001E0009200CF910895CF93DF93EC0182E091E0EC
:1001F0000E94B8018A819B8185309105C9F48CE108
:1002000091E00E94B80180E00E94C2008AE590E07F
:100210000E944D012FE786E998E9215080409040E7
:10022000E1F700C0000080E090E00E944D0118C09E
:100230000497B1F489E491E00E94B80181E00E9442
:10024000C20081E00E94AA002FE786E998E92150C8
:1002500080409040E1F700C0000080E00E94AA00CA
:10026000DF91CF91089584B1826084B984B18460B4
:1002700084B984B1886084B9E0E8F0E08081826A62
:100280008083E1E8F0E080818A6180838FE39CE9EC
:10029000909387008093860008959923C4F0BC0151
:1002A0006E5F7F4F072E000C880B990B0E944B024C
:1002B0002AE939E941EB50E40E94AF020E9413029F
:1002C000CB018355944F90938900809388009923A4
:1002D000F4F49C01992324F422273327281B390B9B
:1002E000B901330F880B990B0E944B022AE939E9B7
:1002F00041EB50E40E94AF020E94130227EB3BE067
:10030000C901861B970B90938900809388000895FC
:10031000F8941092C00088E18093C10086E0809339
:10032000C20087E690E09093C5008093C400789463
:1003300008958091C00088231CF48091C600089520
:1003400080E00895882331F09091C00095FFFCCFA4
:100350008093C6000895CF93DF93EC0103C00E9401
:10036000A201219688818111FACFDF91CF91089562
:100370000E94AB018DE00E94A2018AE00E94A201CE
:100380000895CF93DF93CDB7DEB72E970FB6F894CD
:10039000DEBF0FBECDBF0E94A6000E94330180E0E9
:1003A00090E00E944D010E9488010E94B10082E706
:1003B00091E00E94B8010E949901182F0E949901B2
:1003C000082F2FEF85EA9EE0215080409040E1F712
:1003D00000C0000040E1BE016B5F7F4F812F90E0C5
:1003E0000E944403CE0105960E94B80140E1BE017F
:1003F0006B5F7F4F802F90E00E944403CE010596F3
:100400000E94B8011123B9F20023A9F2812F90E0D4
:100410009A838983802F90E09C838B83CE01019601
:100420000E94F300C8CF0E941A026894B1110C9484
:10043000A90208950E948E0288F09F5798F0B92F64
:100440009927B751B0F0E1F0660F771F881F991F09
:100450001AF0BA95C9F714C0B13091F00E94A80201
:10046000B1E008950C94A802672F782F8827B85F11
:1004700039F0B93FCCF3869577956795B395D9F761
:100480003EF490958095709561957F4F8F4F9F4F6B
:100490000895E89409C097FB3EF490958095709577
:1004A00061957F4F8F4F9F4F9923A9F0F92F96E9C0
:1004B000BB279395F695879577956795B795F11135
:1004C000F8CFFAF4BB0F11F460FF1BC06F5F7F4FD2
:1004D0008F4F9F4F16C0882311F096E911C07723E4
:1004E00021F09EE8872F762F05C0662371F096E8ED
:1004F000862F70E060E02AF09A95660F771F881FBC
:10050000DAF7880F9695879597F9089557FD9058D3
:10051000440F551F59F05F3F71F04795880F97FBC7
:10052000991F61F09F3F79F0879508951216130681
:100530001406551FF2CF4695F1DF08C016161706B0
:100540001806991FF1CF86957105610508940895E5
:10055000E894BB2766277727CB0197F908950E9477
:10056000C2020C9433030E94250338F00E942C032E
:1005700020F0952311F00C941C030C9422031124F9
:100580000C94A9020E94860270F3959FC1F3950F07
:1005900050E0551F629FF001729FBB27F00DB11D07
:1005A000639FAA27F00DB11DAA1F649F6627B00D97
:1005B000A11D661F829F2227B00DA11D621F739F80
:1005C000B00DA11D621F839FA00D611D221F749F8E
:1005D0003327A00D611D231F849F600D211D822FD5
:1005E000762F6A2F11249F5750409AF0F1F08823FC
:1005F0004AF0EE0FFF1FBB1F661F771F881F915029
:100600005040A9F79E3F510580F00C941C030C94B8
:10061000A9025F3FE4F3983ED4F3869577956795FA
:10062000B795F795E7959F5FC1F7FE2B880F911D52
:100630009695879597F9089597F99F6780E870E0F8
:1006400060E008959FEF80EC089500240A94161648
:10065000170618060906089500240A9412161306B0
:10066000140605060895092E0394000C11F488233E
:1006700052F0BB0F40F4BF2B11F460FF04C06F5F5A
:100680007F4F8F4F9F4F0895BB274A3031F49923F6
:1006900022F4BDE2909581959F4F0C945003BB27A7
:1006A000FB015527AA27880F991FAA1FA41710F02E
:1006B000A41B83955051B9F7A05DAA3308F0A95D3A
:1006C000A193009779F7B111B1931192CB010C94DA
:1006D0006903DC01FC01672F71917723E1F7329701
:1006E00004C07C916D9370836291AE17BF07C8F30D
:1006F0000895F999FECF92BD81BDF89A992780B5EA
:100700000895262FF999FECF1FBA92BD81BD20BD55
:100710000FB6F894FA9AF99A0FBE01960895F894D4
:02072000FFCF09
:100722000702456A65637574616E646F2061637464
:10073200696F6E2068616E646C65720061627269D5
:10074200656E646F20636F6D707565727461207081
:100752006172612073616C696461206465206D61FE
:1007620073636172696C6C610041756D656E746171
:100772006E646F206D6173636172696C6C61202DB0
:1007820020616363696F6E616E646F2062616E6483
:0C0792006100456E63656E6469646F0071
:00000001FF
