:100000000C9434000C9451000C9451000C94510049
:100010000C9451000C9451000C9451000C9451001C
:100020000C9451000C9451000C9451000C9451000C
:100030000C9451000C9451000C9451000C945100FC
:100040000C9451000C9451000C9451000C945100EC
:100050000C9451000C9451000C9451000C945100DC
:100060000C9451000C94510011241FBECFEFD8E026
:10007000DEBFCDBF11E0A0E0B1E0E4E4F7E002C0F4
:1000800005900D92AA36B107D9F721E0AAE6B1E0B2
:1000900001C01D92A838B207E1F70E94F0010C944C
:1000A000A0030C94000090937F018FE791E00895E6
:1000B000109282011092810182E090E00FC0FC0159
:1000C000E659FE4F40812091810130918201240F39
:1000D000311D309382012093810101968630910574
:1000E00070F38091810190918201809590950E949A
:1000F000530080917F01809387010895CF93DF9310
:10010000CAE6D1E09FEF988399838A8383E08B834B
:100110006C834D830E945800809187018E83DF910C
:10012000CF910895CF93DF930E947E00C0E0D0E08E
:1001300007C0FE01E659FE4F80810E94D101219641
:10014000C730D105B0F3DF91CF9108958FEF8AB911
:1001500087B90895882319F081E088B9089518B8FF
:10016000089580E090E00E948A0381110AC06AE04D
:1001700081E090E00E94920361E080E090E00E94C4
:1001800092030895CF93882391F081E090E00E943C
:100190008A03C1E0C80F6C2F81E090E00E949203B7
:1001A0004C2F6091000182E00E94920023C081E008
:1001B00090E00E948A03813081F486E191E00E9400
:1001C000E70140E06091000182E00E94920060E05F
:1001D00081E090E00E9492030DC0CFEFC80F6C2F1A
:1001E00081E090E00E9492034C2F6091000182E038
:1001F0000E949200CF910895CF93DF93EC0182E3A8
:1002000091E00E94E70140E165E771E08881998112
:100210000E94550385E791E00E94E70140E165E710
:1002200071E08C819D810E94550385E791E00E94D9
:10023000E70140E165E771E08E819F810E945503EF
:1002400085E791E00E94E7012A813B812530310555
:10025000C9F48CE491E00E94E70180E00E94C200B2
:100260008AE590E00E947C012FE786E998E9215019
:1002700080409040E1F700C0000080E090E00E94E4
:100280007C011DC04C815D818091010190E0481787
:100290005907A9F42130310591F481E00E94C20090
:1002A00081E00E94AA002FEB87E299E02150804074
:1002B0009040E1F700C0000080E00E94AA00DF91BA
:1002C000CF91089584B1826084B984B1846084B987
:1002D00084B1886084B9E0E8F0E08081826A80833C
:1002E000E1E8F0E080818A6180838FE39CE990936C
:1002F00087008093860008959923C4F0BC016E5F47
:100300007F4F072E000C880B990B0E945C022AE994
:1003100039E941EB50E40E94C0020E942402CB0163
:100320008355944F90938900809388009923F4F427
:100330009C01992324F422273327281B390BB90168
:10034000330F880B990B0E945C022AE939E941EBD3
:1003500050E40E94C0020E94240227EB3BE0C90146
:10036000861B970B90938900809388000895F894DA
:100370001092C00088E18093C10086E08093C200A3
:1003800087E690E09093C5008093C4007894089528
:100390008091C00088231CF48091C600089580E0FD
:1003A0000895882331F09091C00095FFFCCF809391
:1003B000C6000895CF93DF93EC0103C00E94D101E2
:1003C000219688818111FACFDF91CF9108950E9403
:1003D000DA018DE00E94D1018AE00E94D1010895E6
:1003E000CF93DF9300D000D0CDB7DEB70E94A60038
:1003F0000E94620180E090E00E947C010E94B701AF
:100400000E94B1008FE591E00E94E7010E94C801BF
:10041000182F0E94C8012FEF35EA9EE0215030408E
:100420009040E1F700C00000112381F3882371F3AD
:10043000212F30E03A83298390E09C838B83CE0187
:1004400001960E94FC00E2CF0E942B026894B11139
:100450000C94BA0208950E949F0288F09F5798F06A
:10046000B92F9927B751B0F0E1F0660F771F881FB9
:10047000991F1AF0BA95C9F714C0B13091F00E94D3
:10048000B902B1E008950C94B902672F782F88273C
:10049000B85F39F0B93FCCF3869577956795B395FA
:1004A000D9F73EF490958095709561957F4F8F4F69
:1004B0009F4F0895E89409C097FB3EF4909580956E
:1004C000709561957F4F8F4F9F4F9923A9F0F92F1A
:1004D00096E9BB279395F695879577956795B79598
:1004E000F111F8CFFAF4BB0F11F460FF1BC06F5F7E
:1004F0007F4F8F4F9F4F16C0882311F096E911C090
:10050000772321F09EE8872F762F05C0662371F0B0
:1005100096E8862F70E060E02AF09A95660F771FC4
:10052000881FDAF7880F9695879597F9089557FDF4
:100530009058440F551F59F05F3F71F04795880F51
:1005400097FB991F61F09F3F79F0879508951216E8
:1005500013061406551FF2CF4695F1DF08C0161694
:1005600017061806991FF1CF869571056105089445
:100570000895E894BB2766277727CB0197F908955C
:100580000E94D3020C9444030E94360338F00E9468
:100590003D0320F0952311F00C942D030C943303AC
:1005A00011240C94BA020E94970270F3959FC1F334
:1005B000950F50E0551F629FF001729FBB27F00D11
:1005C000B11D639FAA27F00DB11DAA1F649F662766
:1005D000B00DA11D661F829F2227B00DA11D621FB5
:1005E000739FB00DA11D621F839FA00D611D221F6F
:1005F000749F3327A00D611D231F849F600D211D53
:10060000822F762F6A2F11249F5750409AF0F1F0D5
:1006100088234AF0EE0FFF1FBB1F661F771F881F3E
:1006200091505040A9F79E3F510580F00C942D0346
:100630000C94BA025F3FE4F3983ED4F38695779525
:100640006795B795F795E7959F5FC1F7FE2B880FE4
:10065000911D9695879597F9089597F99F6780E87A
:1006600070E060E008959FEF80EC089500240A9404
:100670001616170618060906089500240A9412167D
:100680001306140605060895092E0394000C11F4B0
:10069000882352F0BB0F40F4BF2B11F460FF04C05D
:1006A0006F5F7F4F8F4F9F4F0895BB274A3031F4C4
:1006B000992322F4BDE2909581959F4F0C9461039C
:1006C000BB27FB015527AA27880F991FAA1FA4172C
:1006D00010F0A41B83955051B9F7A05DAA3308F020
:1006E000A95DA193009779F7B111B1931192CB0154
:1006F0000C947A03DC01FC01672F71917723E1F7F9
:10070000329704C07C916D9370836291AE17BF07DE
:10071000C8F30895F999FECF92BD81BDF89A992743
:1007200080B50895262FF999FECF1FBA92BD81BDDD
:1007300020BD0FB6F894FA9AF99A0FBE0196089563
:04074000F894FFCF5B
:100744000204656E63656E6469646F00617061675D
:1007540061646F002C005365206163616261726F94
:100764006E206C6173206D6173636172696C6C617E
:100774007300456A65637574616E646F20616374A8
:10078400696F6E2068616E646C6572006162726983
:10079400656E646F20636F6D70756572746100457A
:0A07A4006E63656E6469646F000007
:00000001FF
